:1000000002308A00B22A00000A108A100A11820700
:10001000C034F934A434B034993492348234F8348E
:10002000803490342B308400831300080319252872
:100030000230F800F701F70B1B28F80B1A2897304D
:10004000F700F70B2128800B18280800300EF03934
:10005000F7000F30080577048800000008143028E6
:100060003128081008000808F700080E0F39F800BA
:1000700008008316081088100811831288100F30AA
:1000800083160805F038880083120815000008144C
:10009000000033207808B000081000000814502831
:1000A00033207808AF0008100F3083160805880049
:1000B0008312300EF700F030F70577082F04F800B0
:1000C0007808AF00AF1B3F282D1C88102D1888140E
:1000D00000000811000008102E0EAF000F30AF0511
:1000E0002F08B00026202E080F39AF00B0002620C0
:1000F00008002830A7000C30A8000130A900063005
:10010000AA000810881008110F308316080588000F
:100110000810881008110F308312AB001220013034
:10012000A6002608033C031C9D280330B0002620AF
:100130000530AB001220A60A91280230B00026201C
:100140000530AB001220A6012608033C031CB4288E
:1001500027302607840083130008AB00AD012B086D
:10016000AE003920A60AA4288A110A12E02A8E308D
:10017000F7002908F8002808F900FA01F808031D1B
:10018000CB287908F800F9010830F702F808031DB8
:10019000CB28F701D3280310F81BD228F90DF80D4E
:1001A000F703CB28F8130800280803199929B4008D
:1001B0002C0803199929B402031CE3287F30B407E3
:1001C00003189929E9288130B402031C99290319DD
:1001D00099293408F700F801F901FA01B301290857
:1001E000B200B2172A08B1002B08B0001930B400D1
:1001F0002F08B00203180C290130B10203180C2992
:10020000B20203180C29B30203180C29B30AB20A6C
:10021000B10A2F08B0073E292E08B102031827297A
:100220000130B20203182729B30203182729B30AA1
:10023000B20A2E08B1072F08B007031C3E29B10AE5
:10024000031D3E29B20A031D3E29B30A3E292D088B
:100250008038B20203183D290130B30203183D294A
:10026000B30A2D088038B2072E08B107031C1B29DA
:10027000B20A031D1B29B30A1B297A14B40B4129A6
:100280004C290310B00DB10DB20DB30D0310FA0DD2
:10029000F90DF80DB50DF828351C54290310F80C8C
:1002A000F90CFA0CB50C5729F70303199929B51B5A
:1002B00080290310B00DB10DB20DB30D2F08B0029F
:1002C00003186C290130B10203186C29B20203181B
:1002D0006C29B302031C8F292E08B1020318772959
:1002E0000130B20203187729B302031C8F292D08AD
:1002F0008038B202031880290130B302031C8F2911
:10030000FA0A031D8F29F90A031D8F29F80A031D14
:100310008F29F70A03199929F80CF90CFA0C290806
:10032000B4002D08B406B41F9729F8179D29F813B7
:100330009D29F701F801F901FA0108008E30F70054
:100340002608F7022708F9002808F800F917F70827
:100350000319B5290310F908031DB129F808031979
:10036000B529F90CF80CF70BAA29A71FBC29F80925
:10037000F909F80A0319F90A08002908F8012802FE
:100380000318C5292808F700D129F7010830AA0069
:10039000A80DF70D290877020318F700F80DAA0B2E
:1003A000C82908002A0BD529D8294030AB00D92903
:1003B000AB0101302902AB072B088038AC00AD013E
:1003C0002C08AE00392008002808073A0319F22942
:1003D0000B3A0319F729063A0319FF29023A0319C0
:1003E000052A0A2A0130A900AA00D2210F2AAD014C
:1003F0000130AE0039200230AB0012200F2A01304C
:10040000A9000230AA00D2210F2AAD011030AE009F
:1004100039200F2A0130AD002808AE00392008002D
:1004200078082608A8006430A900BD217708A60036
:1004300078083030031D232AA71C2A2AA7192A2A44
:10044000271A2030262AA71127122714F807780820
:10045000A800E4212608A8000A30A900BD217708D9
:10046000A60078083030031D3B2AA7193F2A271C15
:100470003F2A271A2030F8077808A800E4213030F6
:10048000A6072608A800E4210800200B542A240807
:1004900022020318502A8316061083120614542AC7
:1004A00083160610831206102008023C031D652ADD
:1004B000240823020318612A8316061083120614E7
:1004C000652A83160610831206100130A900AA00BF
:1004D000D2215430A800E4213130A800E4213D307D
:1004E000A800E4212208A6000130A7001022DF3076
:1004F000A800E4214330A800E4210130A90008301D
:10050000AA00D2215430A800E4213230A800E4210E
:100510003D30A800E4212308A6000130A7001022E6
:10052000DF30A800E4214330A800E4210230A90014
:100530000130AA00D2215130A800E4214E30A80099
:10054000E4213D30A800E4212408A6000130A700E2
:100550001022DF30A800E4214330A800E4218A11F2
:100560000A12BD2B03081F398300713083168F00D8
:1005700090010F088312A0012110A201A301A40180
:10058000FF30A500831603170908C039890003133B
:100590001F129F1200300317880083128701880101
:1005A00089018313FF30831603138500FE30860014
:1005B000003087008312A5008316880083127928F3
:1005C0001F179F1783169F1783121F148316031775
:1005D0000908C039890003131F129F120E30031738
:1005E00088000313061083120610001C022B14301F
:1005F000AB0012200018A00A2008023C031CA00136
:100600000018002B001C0D2B1430AB001220001C16
:100610000B2B0130A10600180B2B0430F8001F082B
:10062000C33978049F009F149F18142B1E08F900EB
:1006300083161E08F80079088312A7007808A60020
:100640002708A9007808A800B7207A08AB00790825
:10065000AA007808A9007708A800AA30AF00F130F6
:10066000AE000230AD008030AC00D4207A08A90082
:100670007908A8007808A7007708A6009E217808C6
:10068000A2000C30F8001F08C33978049F009F14A3
:100690009F18482B1E08F90083161E08F8007908D9
:1006A0008312A7007808A6002708A9007808A800E8
:1006B000B7207A08AB007908AA007808A900770863
:1006C000A800AA30AF00F130AE000230AD0080309B
:1006D000AC00D4207A08A9007908A8007808A700FF
:1006E0007708A6009E217808A3000830F8001F08AC
:1006F000C33978049F009F149F187C2B1E08F900B3
:1007000083161E08F80079088312A7007808A6004F
:100710002708A9007808A800B7207A08AB00790854
:10072000AA007808A9007708A800CD30AF00CC3027
:10073000AE002430AD008230AC00D4207A08A9008D
:100740007908A8007808A7007708A6009E217808F5
:10075000A400211CBB2B2008A8000A30A900BD2141
:1007600077080420A6000030A500831687018312B5
:0E07700026088700BC2B9F17452AF52A630038
:04400E00E52FFF3F5C
:00000001FF
;PIC16F887
;CRC=D2FD  CREATED="30-Nov-22 19:48"
