:1000000000308A000428000003081F398300A00183
:10001000831603170908C039890003131F129F12A2
:100020000030031788008312870188018901831338
:100030002530031390008E01FD308F008F308E002D
:1000400000000C1C2B288E01FD308F008F308E009D
:1000500000000C10A00AA008031D33288316091005
:10006000831209143D282008033C031C3C288316F6
:0E0070000910831209103D28A0012128630009
:04400E00E22FFF3F5F
:00000001FF
;PIC16F887
;CRC=3684  CREATED="30-Nov-22 20:25"
