:1000000004308A00762C0000FF00030E8301A1005B
:100010000A08A0008A010408A2007708A300780853
:10002000A4007908A5007A08A60003170D08031399
:10003000A70003170F080313A80003170C080313E6
:10004000A90003170E080313AA00831383128C3030
:100050008400801E2D288C1A4E2822088400230834
:10006000F7002408F8002508F9002608FA002708F8
:1000700003178D000313280803178F0003132908A3
:1000800003178C0003132A0803178E00031320089C
:100090008A00210E8300FF0E7F0E09008A110A12CA
:1000A00051288C1E51281A08AB002B08463C031D12
:1000B0005C280A30AD0067282B08303C03186728FD
:1000C0002B08393C031C672830302B02AD001A087E
:1000D0008C128A110A122D2843100000C424D21E4B
:1000E0000001C62B2000D2225600C43AF43CBD12B7
:1000F000B33A800025003A308400831300080319C6
:100100008E280230F800F701F70B8428F80B8328BB
:100110009730F700F70B8A28800B812808004118D8
:100120009328081294280816831608128312C118FF
:100130009B2888129C2888168316881283124119DE
:10014000A3280813A4280817831608138312C119BB
:10015000AB288813AC2888178316881300008312F5
:10016000081483160810B428B528831208108316C3
:10017000081083120800C20183160816003083128B
:10018000081A0130C2048316881600308312881AB8
:100190000130F7000310F70D7708C2048316081723
:1001A00000308312081B0130F700F70DF70DFC300B
:1001B000F7057708C2048316881700308312881B5E
:1001C0000130F700F70DF70DF70DF830F705770858
:1001D000C2044208F80008008316081088100811AD
:1001E0008312881083168810081688160817881737
:1001F0008312081583160811000083120814831651
:10020000081000008312BB207808C1000810831674
:100210000810000083120814831608100F29831297
:10022000BB207808C0000810831608100812881236
:10023000081388138312410EF700F030F705770892
:100240004004F8007808C000C01F28298316F4284D
:10025000BE08031D2D2988102E29881483168810A6
:100260000000831208118316081100008312081081
:100270008316081083123F0EC0000F30C0054008DF
:10028000C1008F203F080F39C000C1008F20080037
:100290002830B5000C30B6000130B7000630B80089
:1002A0000810831608108312881083168810831292
:1002B00008118316081108128812081388130810F1
:1002C000881008110F308312BA007B200130B4006F
:1002D0003408033C031C74290330C1008F2005300F
:1002E000BA007B20B40A68290230C1008F20053093
:1002F000BA007B20B4013408033C031C8B29353041
:100300003407840083130008B900BE013908BF0018
:10031000EC20B40A7B298A110A12B22C8E30F70025
:100320003708F8003608F900FA01F808031DA22979
:100330007908F800F9010830F702F808031DA2292E
:10034000F701AA290310F81BA929F90DF80DF703E5
:10035000A229F8138A110A12152D36080319722AD8
:10036000C2003A080319722AC202031CBC297F305A
:10037000C2070318722AC2298130C202031C722AE2
:100380000319722A4208F700F801F901FA01C101C4
:100390003708C000C0173808BF003908BE00193040
:1003A000C2003D08BE020318E5290130BF02031850
:1003B000E529C0020318E529C1020318E529C10A8D
:1003C000C00ABF0A3D08BE07172A3C08BF0203182F
:1003D000002A0130C0020318002AC1020318002AB3
:1003E000C10AC00A3C08BF073D08BE07031C172A04
:1003F000BF0A031D172AC00A031D172AC10A172A9C
:100400003B088038C0020318162A0130C1020318C5
:10041000162AC10A3B088038C0073C08BF07031CE6
:10042000F429C00A031DF429C10AF4297A14C20B65
:100430001A2A252A0310BE0DBF0DC00DC10D0310D1
:10044000FA0DF90DF80DC30DD129431C2D2A031007
:10045000F80CF90CFA0CC30C302AF7030319722AB2
:10046000C31B592A0310BE0DBF0DC00DC10D3D08A1
:10047000BE020318452A0130BF020318452AC002F4
:100480000318452AC102031C682A3C08BF0203184E
:10049000502A0130C0020318502AC102031C682AE6
:1004A0003B088038C0020318592A0130C102031CDE
:1004B000682AFA0A031D682AF90A031D682AF80A3D
:1004C000031D682AF70A0319722AF80CF90CFA0CB2
:1004D0003708C2003B08C206C21F702AF817762AE6
:1004E000F813762AF701F801F901FA018A110A12C4
:1004F000262D8E30F7003408F7023508F90036084B
:10050000F800F917F7080319902A0310F908031DDA
:100510008C2AF8080319902AF90CF80CF70B852A95
:10052000B51F972AF809F909F80A0319F90A8A1177
:100530000A122F2DF701F801340803103518F707B8
:10054000F70CF80CB518F707F70CF80C3519F70786
:10055000F70CF80CB519F707F70CF80C351AF70774
:10056000F70CF80CB51AF707F70CF80C351BF70762
:10057000F70CF80CB51BF707F70CF80C0800103057
:10058000BA00F701FA01B70CB60C031CCD2A3808E3
:10059000F7070318FA0A3908FA07FA0CF70CF90CEE
:1005A000F80CBA0BC32A08003B0BD72ADA2A4030D2
:1005B000BC00DB2ABC0101303A02BC073C08803891
:1005C000BD00BE013D08BF00EC2008003908073A15
:1005D0000319F42A0B3A0319F92A063A0319012BD5
:1005E000023A0319072B0C2B0130BA00BB00D422AE
:1005F000112BBE010130BF00EC200230BA007B207D
:10060000112B0130BA000230BB00D422112BBE01E5
:100610001030BF00EC20112B0130BE003908BF00A4
:10062000EC2008003808F801370203181A2B3708A5
:10063000F700262BF7010830B900B70DF70D380881
:1006400077020318F700F80DB90B1D2B0800780886
:100650003508B7006430B80012237708B500780871
:100660003030031D3A2BB61C412BB619412B361ADC
:1006700020303D2BB61136123614F8077808B90031
:10068000E6223508B7000A30B80012237708B50013
:1006900078083030031D522BB619562B361C562BBA
:1006A000361A2030F8077808B900E6223030B5074E
:1006B0003508B900E62208000B08B4008B13831636
:1006C00003178C170C140000000083120313B41BD3
:1006D0008B1703170C087F390319B02B0313B400D1
:1006E00003170D080313B50003170F080313B60013
:1006F0003408B900E622350803178D0003133608C5
:1007000003178F0003130B08B7008B13831603170F
:100710008C170C140000000083120313B71B8B17F7
:1007200003170C0D0E0D7F390319B02B0313B40002
:1007300003170D080313B50003170F080313B600C2
:100740003408B900E622350803178D000313360874
:1007500003178F008D0A03198F0A03135C2B0317ED
:10076000031308000130BA00BB00D4225430B90092
:10077000E6223D30B900E6222C08B5000130B60073
:100780002723DF30B900E6226C3003178D000030DC
:100790008F0003135C232D08B7000A30B800122322
:1007A00030307807B400B900E6222D08B7000A30CF
:1007B000B800122330307707B400B900E6220130C8
:1007C000BA000230BB00D4226E3003178D00003017
:1007D0008F0003135C232E18F52B713003178D0047
:1007E00000308F0003135C23FC2B733003178D0044
:1007F00000308F0003135C230830BA000230BB00C6
:10080000D4222D08B4000A30B5009A227808B4002A
:10081000753003178D0000308F000310053003136F
:10082000B5000B08B6008B13831603178C170C1436
:100830000000000083120313B61B8B170318482C0B
:1008400003170C087F390313B60003170D080313B1
:10085000B70003170F080313B8003608B900E622E3
:10086000370803178D000313380803178F0003138D
:100870000B08B9008B13831603178C170C14000098
:10088000000083120313B91B8B17B50B482C672C80
:1008900003170C0D0E0D7F390313B60003170D0857
:1008A0000313B70003170F080313B8003608B90085
:1008B000E622370803178D000313380803178F004B
:1008C0008D0A03198F0A03100313B50B112C34087A
:1008D000B5001330B60027237A3003178D0000309F
:1008E0008F0003135C238A110A12AA2D03081F39F3
:1008F0008300713083168F0090010F08031787154E
:10090000A0300313990001309A00A630980090306F
:1009100083129800AC01AD012E10B001AF01B201FD
:10092000B101FF30B300831603170908C0398900ED
:1009300003131F129F1200300317880083128701D0
:10094000880189018313FF308316031385008030EB
:1009500087008312B30000308316880001308800BE
:100960008312482933113308831687008312071135
:100970000C30970083169B019C0101309D0083126F
:10098000B310330883168700831287100C309D0044
:100990000030F80006389200F93083169200831276
:1009A0009101C0308B0483168C16831295011708B1
:1009B000CF3997003311330883168700831207114C
:1009C0009B011D08CF399D00B310330883168700A3
:1009D000831287101F179F1783169F1783121F14E8
:1009E000831603170908C039890003131F129F12C9
:1009F0002030031788001430F800831203131F08F7
:100A0000C33978049F009F149F18042D1E08F90015
:100A100083161E08F80079088312B5007808B40020
:100A20003508B7007808B6008E297A08B900790829
:100A3000B8007808B7007708B600AA30BD00F130DA
:100A4000BC000230BB008030BA00AD297A08B70084
:100A50007908B6007808B5007708B400792A7808D4
:100A6000AC002D08B4006430B5009A22B0017808BB
:100A7000AF002C08323C031D522D95011708CF39C9
:100A800097003311330883168700831207119B01E7
:100A90001D08CF399D00B3103308831687008312D9
:100AA0008710A92D2C08323C0318802D2E10B5017B
:100AB0002D08B4003508B7002D08B600B901643020
:100AC000B800BF227908B5007808B400B50CB40CA2
:100AD000B50CB40CB50C34089500B50C350C303998
:100AE000F7001708CF39770497009B011D08CF390D
:100AF0009D00B31033088316870083128710A92D39
:100B00002E1495011708CF39970033113308831637
:100B1000870083120711B5012D08B4003508B7000E
:100B20002D08B600B9016430B800BF227908B500BD
:100B30007808B400B50CB40CB50CB40CB50C340882
:100B40009B00B50C350C3039F7001D08CF39770400
:080B50009D00B22B032D630090
:04400E00E52FFF3F5C
:00000001FF
;PIC16F887
;CRC=068F  CREATED="04-Jun-22 19:35"
