:1000000003308A000B2B0000CC26B31ABA12301929
:100010007500263084008313000803191C28023061
:10002000F800F701F70B1228F80B11289730F700AA
:10003000F70B1828800B0F2808002D18212808120C
:1000400022280816831608128312AD182928881250
:100050002A2888168316881283122D19312808132E
:1000600032280817831608138312AD19392888130C
:100070003A28881783168813000083120814831601
:100080000810422843288312081083160810831290
:100090000800AE018316081600308312081A0130DA
:1000A000AE048316881600308312881A0130F700D8
:1000B0000310F70D7708AE0483160817003083127B
:1000C000081B0130F700F70DF70DFC30F705770836
:1000D000AE048316881700308312881B0130F700A6
:1000E000F70DF70DF70DF830F7057708AE042E0879
:1000F000F800080083160810881008118312881071
:100100008316881008168816081788178312081592
:1001100083160811000083120814831608100000CB
:10012000831249207808AD000810831608100000DB
:1001300083120814831608109D288312492078081A
:10014000AC000810831608100812881208138813D0
:1001500083122D0EF700F030F70577082C04F80015
:100160007808AC00AC1FB62883168228AA08031DA5
:10017000BB288810BC2888148316881000008312BE
:100180000811831608110000831208108316081046
:1001900083122B0EAC000F30AC052C08AD001D20D7
:1001A0002B080F39AC00AD001D2008002830A2003C
:1001B0000C30A3000130A4000630A50008108316FF
:1001C0000810831288108316881083120811831672
:1001D00008110812881208138813081088100811D3
:1001E0000F308312A60009200130A1002108033C32
:1001F000031C02290330AD001D200530A600092094
:10020000A10AF6280230AD001D200530A600092005
:10021000A1012108033C031C192922302107840075
:1002200083130008A600AA012608AB007A20A10AC1
:1002300009298A110A122E2B8E30F7002208F800A5
:100240002108F900FA01F808031D30297908F8009F
:10025000F9010830F702F808031D3029F7013829A1
:100260000310F81B3729F90DF80DF7033029F8139F
:100270008A110A12522B21080319002AAD00250801
:100280000319002AAD02031C4A297F30AD07031869
:10029000002A50298130AD02031C002A0319002ACC
:1002A0002D08F700F801F901FA01AC012208AB00B2
:1002B000AB172308AA002408A9001930AD002808AC
:1002C000A902031873290130AA0203187329AB028B
:1002D00003187329AC0203187329AC0AAB0AAA0AE3
:1002E0002808A907A5292708AA0203188E29013082
:1002F000AB0203188E29AC0203188E29AC0AAB0A94
:100300002708AA072808A907031CA529AA0A031D6C
:10031000A529AB0A031DA529AC0AA5292608803802
:10032000AB020318A4290130AC020318A429AC0ABB
:1003300026088038AB072708AA07031C8229AB0AC6
:10034000031D8229AC0A82297A14AD0BA829B3298E
:100350000310A90DAA0DAB0DAC0D0310FA0DF90D8C
:10036000F80DAE0D5F292E1CBB290310F80CF90CFB
:10037000FA0CAE0CBE29F7030319002AAE1BE729BD
:100380000310A90DAA0DAB0DAC0D2808A902031886
:10039000D3290130AA020318D329AB020318D329A9
:1003A000AC02031CF6292708AA020318DE29013033
:1003B000AB020318DE29AC02031CF629260880389C
:1003C000AB020318E7290130AC02031CF629FA0A34
:1003D000031DF629F90A031DF629F80A031DF6295B
:1003E000F70A0319002AF80CF90CFA0C2208AD00E0
:1003F0002608AD06AD1FFE29F817042AF813042AB3
:10040000F701F801F901FA018A110A12622B8E3004
:10041000F7002108F7022208F9002308F800F9176D
:10042000F70803191E2A0310F908031D1A2AF808F1
:1004300003191E2AF90CF80CF70B132AA21F252A00
:10044000F809F909F80A0319F90A8A110A126B2B3B
:10045000270B2B2A2E2A4030A8002F2AA801013072
:100460002602A80728088038A900AA012908AB009D
:100470007A2008002508073A0319482A0B3A03197D
:100480004D2A063A0319552A023A03195B2A602AB3
:100490000130A600A7002822652AAA010130AB007E
:1004A0007A200230A6000920652A0130A600023019
:1004B000A7002822652AAA011030AB007A20652AFD
:1004C0000130AA002508AB007A2008000B08A20022
:1004D0008B13831603178C170C1400000000831273
:1004E0000313A21B8B1703189D2A03170C087F39CF
:1004F0000313A20003170D080313A30003170F082B
:100500000313A4002208A5003A22230803178D0034
:100510000313240803178F0003130B08A5008B1384
:10052000831603178C170C140000000083120313AA
:10053000A51B8B17A10B9D2ABC2A03170C0D0E0DB2
:100540007F390313A20003170D080313A300031739
:100550000F080313A4002208A5003A22230803175A
:100560008D000313240803178F008D0A03198F0AC7
:1005700003100313A10B662A8A110A127B2B24088D
:10058000F80123020318C72A2308F700D32AF7012A
:100590000830A500A30DF70D240877020318F70013
:1005A000F80DA50BCA2A080078082108A3006430BA
:1005B000A400BF227708A10078083030031DE72A85
:1005C000A21CEE2AA219EE2A221A2030EA2AA2112F
:1005D00022122214F8077808A5003A222108A30065
:1005E0000A30A400BF227708A10078083030031D2C
:1005F000FF2AA219032B221C032B221A2030F807F2
:100600007808A5003A223030A1072108A5003A2237
:100610008A110A12802B03081F3983007130831658
:100620008F0090010F0803170908C03989000313D0
:100630001F129F1200300317880083128701880160
:100640008901831383160313091489140915891565
:1006500000308800FF3085008312D6281F179F17AF
:1006600083169F1783121F14831603170908C039B6
:10067000890003131F169F162030031788001430BB
:10068000F800831203131F08C33978049F009F14D6
:100690009F18482B83161E088312A000A201200871
:1006A000A1001C297A08A4007908A3007808A200F8
:1006B0007708A1006630A800A7004630A600803069
:1006C000A5003B297A08A4007908A3007808A200B5
:1006D0007708A100072A7808A0000130A600A7002B
:1006E0002822043003178D0000308F0003100530DE
:1006F0000313A100662A2008A1000130A200D42A19
:10070000DF30A5003A224330A5003A22472B630090
:04400E00E42FFF3F5D
:00000001FF
;PIC16F887
;CRC=B951  CREATED="26-Nov-22 04:01"
