:1000000003308A001E2B0000D12A41104E24C92241
:100010005410B2250000D12A41104E24C922541098
:10002000CB180001D12A41104E24C92254104B197B
:10003000000120102010201020102010201020106F
:100040002000430043002A30840083130008031972
:1000500036280630F800F701F70B2C28F80B2B2870
:100060007B30F700F70B3228800B29280800301866
:100070003B2808123C280816831608128312B01871
:100080004328881244288816831688128312301950
:100090004B2808134C280817831608138312B0192D
:1000A0005328881354288817831688130000831256
:1000B0000914831609100330F700F70B5D2883122B
:1000C00009108316091083120800B101831608165F
:1000D00000308312081A0130B104831688160030EC
:1000E0008312881A0130F7000310F70D7708B10466
:1000F0008316081700308312081B0130F700F70D34
:10010000F70DFC30F7057708B10483168817003027
:100110008312881B0130F700F70DF70DF70DF8304B
:10012000F7057708B1043108F800080083160910B4
:1001300089100911831289108316891008168816F0
:1001400008178817831209158316091100008312F6
:100150000914831609100000831265207808B00086
:100160000910831609100000831209148316091060
:10017000B928BA280000831265207808AF0009105A
:100180008316091008128812081388138312300E80
:10019000F700F030F70577082F04F8007808AF0073
:1001A000AF1FD42883169E28AD08031DD9288910B7
:1001B000DA28891483168910000083120911831626
:1001C00009110000831209108316091083122E0EE4
:1001D000AF000F30AF052F08B00037202E080F39C1
:1001E000AF00B000372008002830A6000C30A70070
:1001F0000130A8000630A9000910831609108312E7
:1002000089108316891083120911831609110812A7
:100210008812081388130910891009110F308312EE
:10022000AA0023200130A5002508033C031C202937
:100230000330B00037200530AA002320A50A142976
:100240000230B00037200530AA002320A501250880
:10025000033C031C3729263025078400831300083C
:10026000AA00AD012A08AE009620A50A27298A1106
:100270000A12402B8E30F7002808F8002708F900F2
:10028000FA01F808031D4E297908F800F901083031
:10029000F702F808031D4E29F70156290310F81B31
:1002A0005529F90DF80DF7034E29F8130800270812
:1002B00003191C2AB3002B0803191C2AB302031CC0
:1002C00066297F30B30703181C2A6C298130B302DA
:1002D000031C1C2A03191C2A3308F700F801F90132
:1002E000FA01B2012808B100B1172908B0002A08A4
:1002F000AF001930B3002E08AF0203188F29013068
:10030000B00203188F29B10203188F29B202031813
:100310008F29B20AB10AB00A2E08AF07C1292D08E9
:10032000B0020318AA290130B1020318AA29B202A7
:100330000318AA29B20AB10A2D08B0072E08AF0780
:10034000031CC129B00A031DC129B10A031DC1291B
:10035000B20AC1292C088038B1020318C029013023
:10036000B2020318C029B20A2C088038B1072D0840
:10037000B007031C9E29B10A031D9E29B20A9E29BB
:100380007A14B30BC429CF290310AF0DB00DB10DF2
:10039000B20D0310FA0DF90DF80DB40D7B29341CC4
:1003A000D7290310F80CF90CFA0CB40CDA29F7036E
:1003B00003191C2AB41B032A0310AF0DB00DB10D95
:1003C000B20D2E08AF020318EF290130B002031856
:1003D000EF29B1020318EF29B202031C122A2D08DB
:1003E000B0020318FA290130B1020318FA29B20247
:1003F000031C122A2C088038B1020318032A01308A
:10040000B202031C122AFA0A031D122AF90A031D5A
:10041000122AF80A031D122AF70A03191C2AF80CDB
:10042000F90CFA0C2808B3002C08B306B31F1A2ADB
:10043000F817202AF813202AF701F801F901FA0128
:1004400008008E30F7002508F7022608F900270873
:10045000F800F917F7080319382A0310F908031DE3
:10046000342AF8080319382AF90CF80CF70B2D2A4E
:10047000A61F3F2AF809F909F80A0319F90A080022
:100480002A0B432A462A4030AB00472AAB010130F1
:100490002902AB072B088038AC00AD012C08AE0058
:1004A000962008002808073A0319602A0B3A031916
:1004B000652A063A03196D2A023A0319732A782A23
:1004C0000130A900AA0040227D2AAD010130AE0012
:1004D00096200230AA0023207D2A0130A900023094
:1004E000AA0040227D2AAD011030AE0096207D2A60
:1004F0000130AD002808AE00962008000B08A500CA
:100500008B13831603178C170C1400000000831242
:100510000313A51B8B1703170C087F390319D22A65
:100520000313A50003170D080313A60003170F08F4
:100530000313A7002508A8005222260803178D00E0
:100540000313270803178F0003130B08A8008B134E
:10055000831603178C170C1400000000831203137A
:10056000A81B8B1703170C0D0E0D7F390319D22A08
:100570000313A50003170D080313A60003170F08A4
:100580000313A7002508A8005222260803178D0090
:100590000313270803178F008D0A03198F0A03130B
:1005A0007E2A0317031308002808F80127020318FE
:1005B000DC2A2708F700E82AF7010830A900A70D70
:1005C000F70D280877020318F700F80DA90BDF2AAA
:1005D000080078082508A7006430A800D42277080E
:1005E000A50078083030031DFC2AA61C032BA61991
:1005F000032B261A2030FF2AA61126122614F807EC
:100600007808A80052222508A7000A30A800D422A2
:100610007708A50078083030031D142BA619182B75
:10062000261C182B261A2030F8077808A80052221A
:100630003030A5072508A8005222080003081F39FA
:100640008300A201A401A301831603170908C0397E
:10065000890003131F129F120030031788008312B2
:100660008701880189018313FF30831603138500F6
:100670000030880009108910091189118312F428AB
:100680001F139F1783169F1783121F1483160317B8
:100690000908C039890003131F169F12063003177B
:1006A00088000430F800831203131F08C33978044C
:1006B0009F009F149F185A2B1E08F90083161E08CE
:1006C000F80079088312A6007808A5002608A8007B
:1006D0007808A7003A217A08AA007908A9007808C2
:1006E000A8007708A7005430AE00E330AD003530E5
:1006F000AC008030AB0057217A08A8007908A70029
:100700007808A6007708A50021227808A000083004
:10071000F8001F08C33978049F009F149F188E2B80
:100720001E08F90083161E08F80079088312A60037
:100730007808A5002608A8007808A7003A217A08BA
:10074000AA007908A9007808A8007708A700543003
:10075000AE00E330AD003530AC008030AB00572147
:100760007A08A8007908A7007808A6007708A500ED
:1007700021227808A10020083C3C0318D02B210836
:100780003C3C0318D02B0130A9000230AA004022C3
:10079000043003178D0000308F0003137E22FE2BE0
:1007A00020083C3C0318E12B0130A9000230AA00CC
:1007B00040220B3003178D0000308F0003137E2280
:1007C000FE2B21083C3C0318F22B0130A90002301B
:1007D000AA004022123003178D0000308F0003134F
:1007E0007E22FE2B0130A9000230AA0040221930DF
:1007F00003178D0000308F0003137E220130A90003
:10080000AA0040225430A80052223130A8005222BF
:100810003D30A80052222008A5000130A600E922A0
:10082000DF30A8005222213003178D0000308F00E6
:1008300003137E220A30A9000130AA00402254305E
:10084000A80052223230A80052223D30A800522285
:100850002108A5000130A600E922DF30A8005222BD
:10086000223003178D0000308F0003137E22831681
:060870000317512B630089
:04400E00E22FFF3F5F
:00000001FF
;PIC16F887
;CRC=CEB9  CREATED="29-May-22 08:54"
