:1000000000308A002B28000023308400831300086E
:10001000031917280230F800F701F70B0D28F80B29
:100020000C289730F700F70B1328800B0A288A1149
:100030000A1281280830A402031C2A2824308400D4
:1000400083130310800C000803192A2828280000B5
:10005000800B2728080003081F398300713083169E
:100060008F0090010F088312A001A101FF30A200B0
:10007000831603170908C039890003131F129F1242
:1000800000300317880083128701880189018313D8
:100090000030831603138800FF308600003087008D
:1000A0008312A20083168614831286185D280130FD
:1000B000A0008E018F018E010000831606158312A9
:1000C00006196C280230A000053090008E01FC302B
:1000D0008F0018308E000000A008031D7628221122
:1000E00022088316870083120711BB28200B96284D
:1000F0002211220883168700831207150130A300FE
:1001000004280230A300F830A4001A20A30B83288F
:100110002211220883168700831207110230A300E0
:10012000F830A4001A20A30B9028BB282008023C1A
:10013000031DBB28053090008E01F4308F0048303D
:100140008E000000221122088316870083120715F3
:100150000C18A8280C10053090008E01FC308F0080
:1001600018308E00000022112208831687008312A7
:0A01700007110C18B928522863008B
:04400E00E52FFF3F5C
:00000001FF
;PIC16F887
;CRC=A05F  CREATED="28-May-22 19:43"
