:1000000000308A000428000003081F398300713083
:1000100083168F0090010F08031787110C3003130C
:100020009900A2309800903083129800A00121100E
:10003000831603170908C039890003131F129F1282
:100040000030031788008312870188018901831318
:100050000330831603138800803088000811831250
:10006000081183160814831208183E2883160811F5
:100070008312081531300C1E3B2899008316881412
:10008000831288184B288316081183120811303008
:0A0090000C1E482899003128630077
:04400E00E52FFF3F5C
:00000001FF
;PIC16F887
;CRC=EA5A  CREATED="29-May-22 11:11"
