:1000000000308A00AE2800002908F80128020318F1
:100010000C282808F7001828F7010830AA00A80DB6
:10002000F70D290877020318F700F80DAA0B0F281F
:10003000080078082608A8006430A9000420770882
:10004000A60078083030031D2C28A71C3428A719D7
:100050003428271A20302F28A71127122714F80731
:1000600078080C1E312899002608A8000A30A9003B
:1000700004207708A60078083030031D4528A7190A
:100080004A28271C4A28271A2030F80778080C1E0F
:10009000472899003030A60726080C1E4D289900E5
:1000A0008A110A122129AE010408AD002E10831B0B
:1000B0002E14270EF038A900A907E23EAA00323E0E
:1000C000AC0027080F39AA07AA07AC07E93EAB0026
:1000D000AB07AB07260E0F39AB07AC07AB0DAC0D6A
:1000E000AC09AC0D26080F39AC07A90D0730A800E4
:1000F0000A30AC07AB03031C7928AB07AA03031C27
:100100007D28AA07A903031C8128A907A803031CAB
:10011000852828308400831307302D052D1384078C
:100120002C30040203192D170008F700031DA02826
:100130002D1BA0282D1AA828AD19A0282030A328EF
:10014000AD152D123030F70777080C1EA528990041
:10015000840A2D1F90288A110A12342903081F3996
:100160008300713083168F0090010F0803178715E5
:10017000A0300313990001309A00A6309800903007
:1001800083129800A001A101A201A401A301FF30E4
:10019000A500831603170908C039890003131F122D
:1001A0009F1200300317880083128701880189019C
:1001B000831381308316031387008312A5008E01F9
:1001C0008F018E01000000308C1A0130013C031DAC
:1001D000ED288C1EE9281A08A0002008313C031DD8
:1001E000F52807309000A001FB282008303C031DB3
:1001F000FB289001A0010F08FA000E08F7000F0875
:100200007A02031DFB287708A1002108323C031D58
:100210001029A30A0319A40A8E018F018E01000080
:100220002208210203193E2950300C1E152999007D
:100230003D300C1E192999002108A6000130A700A5
:1002400019282C300C1E2229990042300C1E262918
:1002500099003D300C1E2A2999000830840024089A
:10026000A7002308A60053280D300C1E352999003D
:100270000A300C1E392999002108A200E3286300E6
:04400E00E52FFF3F5C
:00000001FF
;PIC16F887
;CRC=E4D1  CREATED="29-May-22 10:41"
