:1000000000308A0035280000A601A5012608240238
:10001000031C3428031D1028230825020318342844
:100020000130A70027308400831300080319252816
:100030000230F800F701F70B1B28F80B1A2897304D
:10004000F700F70B2128800B182800308C1A01309C
:10005000013C031D30288C1E2B281A08A0003428D0
:10006000A50A0319A60A0628080003081F398300F9
:10007000713083168F0090010F08031787110C3021
:1000800003139900A2309800903083129800A001C9
:100090002110FF30A200831603170908C039890018
:1000A00003131F129F120030031788008312870169
:1000B000880189018313803083160313870083121C
:1000C000A2008316091089100911891100308312CA
:1000D0008C1A0130013C031D71288C1E6D281A08F2
:1000E000A0002008313C031D772821147B2820081C
:1000F000303C03192110211C90288316091083120B
:1001000009140330A400E830A3000420831609106A
:10011000831209100330A400E830A30004209428BF
:0E0120008316091083120910831666286300E7
:04400E00E52FFF3F5C
:00000001FF
;PIC16F887
;CRC=0D63  CREATED="29-May-22 11:10"
