:1000000002308A00FD2A00005B245D005B265D0053
:100010005B245D005B265D002B30840083130008A9
:1000200003191F280630F800F701F70B1528F80B05
:1000300014287B30F700F70B1B28800B12280800D0
:10004000310EF039F7000F30080577048800000002
:1000500008140330F700F70B2B28081008000808D5
:10006000F700080E0F39F8000800831608108810F2
:100070000811831288100F3083160805F0388800A5
:10008000831208150000081400002F207808B10022
:100090000810000008144C284D2800002F20780874
:1000A000B00008100F308316080588008312310E47
:1000B000F700F030F70577083004F8007808B00052
:1000C000B01B3B282E1C88102E1888140000081125
:1000D000000008102F0EB0000F30B0053008B1003E
:1000E00020202F080F39B000B10020200800283050
:1000F000A7000C30A8000130A9000630AA000810A3
:10010000881008110F308316080588000810881021
:1001100008110F308312AB000C200130A600260816
:10012000033C031C9B280330B10020200530AB00AA
:100130000C20A60A8F280230B10020200530AB0029
:100140000C20A6012608033C031CB22827302607F2
:10015000840083130008AB00AE012B08AF003520EC
:10016000A60AA2288A110A12212B8E30F70029082C
:10017000F8002808F900FA01F808031DC9287908D1
:10018000F800F9010830F702F808031DC928F70143
:10019000D1280310F81BD028F90DF80DF703C92852
:1001A000F8130800280803199729B4002C0803192C
:1001B0009729B402031CE1287F30B407031897295C
:1001C000E7288130B402031C9729031997293408C2
:1001D000F700F801F901FA01B3012908B200B217DA
:1001E0002A08B1002B08B0001930B4002F08B00263
:1001F00003180A290130B10203180A29B2020318B0
:100200000A29B30203180A29B30AB20AB10A2F084D
:10021000B0073C292E08B102031825290130B2028B
:1002200003182529B30203182529B30AB20A2E0898
:10023000B1072F08B007031C3C29B10A031D3C2954
:10024000B20A031D3C29B30A3C292D088038B202AA
:1002500003183B290130B30203183B29B30A2D08C8
:100260008038B2072E08B107031C1929B20A031DF2
:100270001929B30A19297A14B40B3F294A29031002
:10028000B00DB10DB20DB30D0310FA0DF90DF80D4F
:10029000B50DF628351C52290310F80CF90CFA0C90
:1002A000B50C5529F70303199729B51B7E290310AF
:1002B000B00DB10DB20DB30D2F08B00203186A29AD
:1002C0000130B10203186A29B20203186A29B30285
:1002D000031C8D292E08B102031875290130B202C2
:1002E00003187529B302031C8D292D088038B2022A
:1002F00003187E290130B302031C8D29FA0A031D5D
:100300008D29F90A031D8D29F80A031D8D29F70A85
:1003100003199729F80CF90CFA0C2908B4002D08D8
:10032000B406B41F9529F8179B29F8139B29F701E8
:10033000F801F901FA0108008E30F7002608F702EB
:100340002708F9002808F800F917F7080319B32956
:100350000310F908031DAF29F8080319B329F90C94
:10036000F80CF70BA829A71FBA29F809F909F80A08
:100370000319F90A08002B0BBE29C1294030AC0033
:10038000C229AC0101302A02AC072C088038AD002C
:10039000AE012D08AF00352008002908073A0319DF
:1003A000DB290B3A0319E029063A0319E829023A36
:1003B0000319EE29F3290130AA00AB00BB21F8296B
:1003C000AE010130AF0035200230AB000C20F8291F
:1003D0000130AA000230AB00BB21F829AE01103079
:1003E000AF003520F8290130AE002908AF003520D4
:1003F00008000B08A6008B13831603178C170C1428
:100400000000000083120313A61B8B1703170C08B0
:100410007F3903194D2A0313A60003170D08031390
:10042000A70003170F080313A8002608A900CD2171
:10043000270803178D000313280803178F000313E1
:100440000B08A9008B13831603178C170C140000DC
:10045000000083120313A91B8B1703170C0D0E0D3D
:100460007F3903194D2A0313A60003170D08031340
:10047000A70003170F080313A8002608A900CD2121
:10048000270803178D000313280803178F008D0A10
:1004900003198F0A0313F929031703130800290806
:1004A000F80128020318572A2808F700632AF701E1
:1004B0000830AA00A80DF70D290877020318F700E5
:1004C000F80DAA0B5A2A080078082608A8006430FC
:1004D000A9004F227708A60078083030031D772A3C
:1004E000A71C7E2AA7197E2A271A20307A2AA7114C
:1004F00027122714F8077808A900CD212608A8009C
:100500000A30A9004F227708A60078083030031D72
:100510008F2AA719932A271C932A271A2030F80715
:100520007808A900CD213030A6072608A900CD21E2
:1005300008000E30AA000130AB00BB212008643C4B
:100540000318AA2A043003178D0000308F0003130C
:10055000F921B12A063003178D0000308F000313F4
:10056000F9210E30AA000230AB00BB212108643C07
:100570000318C22A083003178D0000308F000313C0
:10058000F921C92A0A3003178D0000308F000313A8
:10059000F9210130AA00AB00BB215430A900CD21C4
:1005A0007830A900CD213D30A900CD212008A6003A
:1005B0000130A7006422DF30A900CD214330A9001B
:1005C000CD210130AA000230AB00BB215430A9007C
:1005D000CD217930A900CD213D30A900CD212108C0
:1005E000A6000130A7006422DF30A900CD214330EE
:1005F000A900CD218A110A12D12B03081F398300CB
:100600002210A301A210A501A40183160317090853
:10061000C039890003131F129F120030031788008E
:1006200083128701880189018313FF308316031326
:10063000850009148914091189110030880083127A
:1006400077281F139F1783169F1783121F14831673
:1006500003170908C039890003131F129F12603065
:100660000317880035308312031390008E010B307E
:100670008F00DC308E0000008316091183120911EF
:100680000C1C522B8E010B308F00DC308E000000D2
:10069000A30A0C102308053C031D512B0130A206B0
:1006A000A301A214A21CBD2B1430F8001F08C339EB
:1006B00078049F009F149F185B2B1E08F900831677
:1006C0001E08F80079088312A7007808A6002708FA
:1006D000A9007808A800B5207A08AB007908AA001C
:1006E0007808A9007708A800AA30AF00F130AE0062
:1006F0000230AD008030AC00D2207A08A900790821
:10070000A8007808A7007708A6009C217808A00018
:100710001830F8001F08C33978049F009F149F18F1
:100720008F2B1E08F90083161E08F8007908831223
:10073000A7007808A6002708A9007808A800B52017
:100740007A08AB007908AA007808A9007708A80001
:10075000AA30AF00F130AE000230AD008030AC0006
:10076000D2207A08A9007908A8007808A70077089D
:10077000A6009C217808A100A2102008643C031C5C
:10078000C52B2108643C0318D02B2218CC2B8316D0
:10079000091183120911D02B83160911831209152F
:0607A000992A402B6300C2
:04400E00E22FFF3F5F
:00000001FF
;PIC16F887
;CRC=669C  CREATED="29-May-22 09:53"
