:1000000000308A0095280000FF00030E8301A10044
:100010000A08A0008A010408A2007708A300780853
:10002000A4007908A5007A08A600831383128C30F7
:100030008400801E1D288C1A2E2822088400230884
:10004000F7002408F8002508F9002608FA0020081F
:100050008A00210E8300FF0E7F0E09008A110A120A
:1000600031288C1E31281A08AB002B08533C031D85
:100070003B28281053282B08523C031D41282814E4
:1000800053282B08463C031D48280A30A700532854
:100090002B082F3C031853282B08393C031C5328EA
:1000A00030302B02A7008C128A110A121D28F7018A
:1000B000F8012D0803102E18F707F70CF80CAE18EE
:1000C000F707F70CF80C2E19F707F70CF80CAE1918
:1000D000F707F70CF80C2E1AF707F70CF80CAE1A06
:1000E000F707F70CF80C2E1BF707F70CF80CAE1BF4
:1000F000F707F70CF80C8A110A12FC281030B3002D
:10010000F701FA01B00CAF0C031C8C283108F7077B
:100110000318FA0A3208FA07FA0CF70CF90CF80C73
:10012000B30B82288A110A12172903081F3983008A
:10013000713083168F0090010F08031787110C3060
:1001400003139900A2309800903083129800A70101
:100150002810AA01A901AB01FF30AC0083160317D8
:100160000908C039890003131F129F1200300317BA
:10017000880083128701880189018313FF30831669
:1001800003138600803087008312AC00C0308B04DC
:1001900083168C160030F800063883129200F9306E
:1001A0008316920083122C112C0883168700831269
:1001B00007110C30970083169B019C0101309D00B4
:1001C0008312910195011708CF3997002C112C0843
:1001D00083168700831207112810831606148312D2
:1001E0000618F728281053300C1EF4289900270809
:1001F000AD006430AE005728AA017808A90028187D
:100200000C2995011708CF3997002C112C0883165B
:100210008700831207112A29AE012708AD002E0896
:10022000B0002708AF00B2016430B1007E28790821
:10023000AE007808AD00AE0CAD0CAE0CAD0CAE0C43
:100240002D089500AE0C2E0C3039F7001708CF3969
:0802500077049700ED2863001C
:04400E00E42FFF3F5D
:00000001FF
;PIC16F887
;CRC=CF58  CREATED="05-Jun-22 10:48"
