:1000000002308A00832A0000FF00030E8301A10052
:100010000A08A0008A010408A2007708A300780853
:10002000A4007908A5007A08A600831383128C30F7
:100030008400801E1D288C1A2E2822088400230884
:10004000F7002408F8002508F9002608FA0020081F
:100050008A00210E8300FF0E7F0E09008A110A120A
:100060003F280A108A100A118207C034F934A434D8
:10007000B034993492348234F834803490348C1E05
:100080003F281A08AB002B08533C031D4B2883164E
:100090008910831289108C128A110A121D2832309D
:1000A000840083130008031962280230F800F70166
:1000B000F70B5828F80B57289730F700F70B5E28F6
:1000C000800B55280800361867280812682808167B
:1000D000831608128312B6186F28881270288816A3
:1000E0008316881283123619772808137828081780
:1000F000831608138312B6197F288813802888175F
:1001000083168813000083120814831608108828A9
:100110008928831208108316081083120800B7017B
:100120008316081600308312081A0130B7048316AC
:10013000881600308312881A0130F7000310F70D7B
:100140007708B7048316081700308312081B0130A4
:10015000F700F70DF70DFC30F7057708B7048316A5
:10016000881700308312881B0130F700F70DF70D58
:10017000F70DF830F7057708B7043708F8000800DE
:100180002830AE000C30AF000130B0000630B100B6
:1001900008108316081083120811831608118312A1
:1001A0008810831688100812881208138813081004
:1001B000081188100F308312B2004F200130AD00BB
:1001C0002D08033C031CEC280330B60063200530E7
:1001D000B2004F20AD0AE0280230B600632005309F
:1001E000B2004F20AD012D08033C031C5D292E30C9
:1001F0002D07840083130008B200B3013208B40055
:10020000831608100811881083120811831608112C
:100210000816881608178817831288148316881002
:1002200000008312081483160810000083128F2028
:100230007808B6000810831608100000831208140E
:1002400083160810232983128F207808B500081020
:100250008316081008128812081388138312360EAA
:10026000F700F030F70577083504F8007808B50096
:10027000B51F3C2983160829B308031D412908111D
:10028000422908158316081100008312881083166E
:100290008810000083120810831608108312340E91
:1002A000B5000F30B5053508B600632034080F39A6
:1002B000B500B6006320AD0AF3288A110A12D52AC8
:1002C0008E30F7002E08F8002D08F900FA01F80822
:1002D000031D74297908F800F9010830F702F808BD
:1002E000031D7429F7017C290310F81B7B29F90DE4
:1002F000F80DF7037429F8138A110A121B2B2D0825
:100300000319442AB90031080319442AB902031C0D
:100310008E297F30B9070318442A94298130B90205
:10032000031C442A0319442A3908F700F801F9018B
:10033000FA01B8012E08B700B7172F08B600300829
:10034000B5001930B9003408B5020318B7290130D7
:10035000B6020318B729B7020318B729B802031861
:10036000B729B80AB70AB60A3408B507E929330825
:10037000B6020318D2290130B7020318D229B802F5
:100380000318D229B80AB70A3308B6073408B507E4
:10039000031CE929B60A031DE929B70A031DE92947
:1003A000B80AE92932088038B7020318E829013071
:1003B000B8020318E829B80A32088038B7073308AA
:1003C000B607031CC629B70A031DC629B80AC629E1
:1003D0007A14B90BEC29F7290310B50DB60DB70D3A
:1003E000B80D0310FA0DF90DF80DBA0DA3293A1C3A
:1003F000FF290310F80CF90CFA0CBA0C022AF703C7
:100400000319442ABA1B2B2A0310B50DB60DB70DDC
:10041000B80D3408B5020318172A0130B6020318C4
:10042000172AB7020318172AB802031C3A2A3308FE
:10043000B6020318222A0130B7020318222AB80292
:10044000031C3A2A32088038B70203182B2A0130DD
:10045000B802031C3A2AFA0A031D3A2AF90A031DB4
:100460003A2AF80A031D3A2AF70A0319442AF80C13
:10047000F90CFA0C2E08B9003208B906B91F422A45
:10048000F817482AF813482AF701F801F901FA0188
:100490008A110A122C2B8E30F7002D08F7022E0835
:1004A000F9002F08F800F917F7080319622A03105A
:1004B000F908031D5E2AF8080319622AF90CF80CE2
:1004C000F70B572AAE1F692AF809F909F80A031928
:1004D000F90A8A110A12352B2E08F8012D02031889
:1004E000742A2D08F700802AF7010830AF00AD0DFF
:1004F000F70D2E0877020318F700F80DAF0B772AD7
:100500008A110A124E2B03081F398300713083169B
:100510008F0090010F08031787110C300313990007
:10052000A2309800903083129800A7012810AA01E9
:10053000A901AB01FF30AC00831603170908C039CD
:10054000890003131F129F120030031788008312C3
:100550008701880189018313003083160313850006
:10056000FF308600803087008312AC0083160910AC
:1005700089100911891183121F179F1783169F175E
:1005800083121F14831603170908C0398900031347
:100590001F129F12203003178800C03083120313EC
:1005A0008B0483168C168312C02828108316061419
:1005B00083120618E52A28148316891083128914D9
:1005C00052300C1EE12A9900F32A831686148312F6
:1005D0008618F32A28108316891083128910533045
:1005E0000C1EF02A99001430F8001F08C339780453
:1005F0009F000230B2004F209F149F18FD2A1E0852
:10060000F90083161E08F80079088312AA007808FA
:10061000A9009F149F180A2B1E08F90083161E08B4
:10062000F80079088312AA007808A9002A08AE0009
:100630002908AD0060297A08B0007908AF00780871
:10064000AE007708AD009A30B4009930B3004C305A
:10065000B2008530B1007F297A08B0007908AF0078
:100660007808AE007708AD004B2A7808A700290863
:100670000C1E382B990027080A3C031D492B8316B2
:1006800085018E308312850046300C1E452B990063
:100690005A2B2708AD000A30AE006C2A77083120AB
:1006A000AD008316850183122D08850027080C1ED6
:0806B000572B9900D62A6300C4
:04400E00E42FFF3F5D
:00000001FF
;PIC16F887
;CRC=A672  CREATED="05-Jun-22 11:12"
